:020000040800F2
:10000000A81000209101000837270008C722000827
:1000100035270008F1050008932B000800000000B8
:100020000000000000000000000000003B27000866
:10003000AB0700080000000039270008B9280008B5
:10004000AB010008AB010008AB010008AB010008E0
:10005000AB010008AB010008AB010008AB010008D0
:10006000AB010008AB010008AB01000875070008F0
:10007000AB010008AB010008AB010008AB010008B0
:10008000AB010008AB010008AB010008AB010008A0
:10009000AB010008AB010008AB010008AB01000890
:1000A000AB010008AB010008AB010008AB01000880
:1000B00039290008AB010008AB010008AB010008BA
:1000C000AB010008AB010008AB010008AB01000860
:1000D000AB010008AB010008AB010008AB01000850
:1000E000AB010008AB010008AB01000800F002F80A
:1000F00000F03FF80AA090E8000C82448344AAF183
:100100000107DA4501D100F034F8AFF2090EBAE880
:100110000F0013F0010F18BFFB1A43F0010318473B
:100120001047000030470000103A24BF78C878C15B
:10013000FAD8520724BF30C830C144BF04680C60ED
:10014000704700000023002400250026103A28BF35
:1001500078C1FBD8520728BF30C148BF0B60704739
:10016000642900F07D80002070471FB51FBD10B5C9
:1001700010BD00F065F91146FFF7F7FF03F04EF8E8
:1001800000F083F903B4FFF7F2FF03BC00F086F937
:100190000948804709480047FEE7FEE7FEE7FEE71B
:1001A000FEE7FEE7FEE7FEE7FEE7FEE70448054957
:1001B000054A064B7047000035290008ED0000088D
:1001C000A80A0020A8100020A80C0020A80C0020DD
:1001D0000FB41CB5074B06AA7B44694600900598EE
:1001E00000F00DF90020694600F01CF91CBC5DF818
:1001F00014FB0000490200002DE9F0410E460446C0
:10020000002020622046E168884730B3252805D0C9
:10021000D4E901219047206A401CF2E7E1682046BA
:1002200000278847050018D0A5F14100192802D8F9
:1002300020354FF400673246294620462760FFF7F5
:100240008FFF40B1012804D0F61D26F007060836BE
:10025000D8E7361DD6E72846DAE7206ABDE8F08100
:100260002DE9F0410646002410687529314616A58F
:1002700010D0AFF30080002802DA404213A507E057
:1002800031688A0701D512A502E0490704D511A5F6
:10029000012401E0AFF3008000210A2206F12407C7
:1002A00009E0B0FBF2FCB0FBF2F302FB1C003030C3
:1002B00078541846491C0028F3D123462A46304674
:1002C000BDE8F04100F03DB8000000002D00000046
:1002D0002B000000200000004FF0000200B5134684
:1002E00094469646203922BFA0E80C50A0E80C5056
:1002F000B1F12001BFF4F7AF090728BFA0E80C5007
:1003000048BF0CC05DF804EB890028BF40F8042BFF
:1003100008BF704748BF20F8022B11F0804F18BF6C
:1003200000F8012B704770477047704710B500F018
:100330007FF8006810BD10B5044600F079F804603D
:1003400010BD2DE9F0470D4699469246044600F14E
:1003500024080168880604D5E06921F010012160B5
:1003600000E00120A84201DD471B00E00027A16951
:100370007A1902EB0900081AA0612078C00602D49D
:100380002046AFF30080002608E0D4E901211AF8E6
:1003900006009047206A401C761C20624E45F4DB24
:1003A0002078C0060AD52046AFF3008006E0D4E9E5
:1003B000012130209047206A401C2062381EA7F19E
:1003C0000107F4DC07E0D4E9012118F805009047A3
:1003D000206A401C2062281EA5F10105F3DC20469E
:1003E000AFF300802078000602D50220BDE8F08738
:1003F0000120FBE701694A1C02610878704700B5DB
:100400008FB0CDE901310021059105497944CDE94D
:10041000031011466846FFF7EFFE0FB000BD000065
:10042000E5FFFFFF0A6802F8010B0A607047000051
:1004300000487047480A002000487047480A0020DA
:100440007546FFF7F9FFAE4605006946534620F0B2
:100450000700854618B020B5FFF7A8FEBDE820408C
:100460004FF000064FF000074FF000084FF0000B70
:1004700021F00701AC46ACE8C009ACE8C009ACE823
:10048000C009ACE8C0098D46704710B50446AFF30B
:1004900000802046BDE81040FFF774BE01491820D7
:1004A000ABBEFEE7260002007047000070B50446B0
:1004B00000688168C943C90717D1816821F001012B
:1004C000816000F02DFE05460AE000BF00F028FE26
:1004D000401B022804D920688068C043C00706D0AA
:1004E00020688068C043C007F0D0002070BDA06ABB
:1004F00040F01000A062E06A40F00100E0620120DC
:1005000070BD10B50146406A826A12F0500F05D0E6
:10051000006A026BBDE8104008461047816A41F44A
:100520000071816201688968C1F3424107290CD1D9
:10053000017B51B9816A21F480718162816AC904A9
:1005400003D4816A41F00101816200F023FA10BDF9
:1005500010B5406A816A41F040018162C16A41F090
:100560000401C16200F018FA10BD10B5406A00F035
:1005700012FA10BDF8B5002604460096006881689E
:10058000C943C9072DD0816841F001018160164837
:1005900016490068B0FBF1F000E0401E0090002812
:1005A000FBD100F0BDFD054616E000BF00F0B8FD30
:1005B000401B022810D920688068C043C0070BD0B8
:1005C000A06A40F01000A062E06A40F00100E06222
:1005D00084F824600120F8BD20688068C043C0070B
:1005E000E4D10020F8BD00004C00002040420F0084
:1005F000FEE710B50022012100F087F8BDE81040A9
:10060000052000F085BC10B50446029821602271D7
:100610006371A0712820A0720620E0710C20207266
:10062000142060720820E072322000F071FC002279
:100630003321204600F069F800223321204600F0E3
:1006400064F8052000F064FC00223221204600F00E
:100650005CF8052000F05CFC00222021204600F020
:1006600054F8052000F054FCE1790022204600F007
:100670004CF8217A0022204600F047F8617A0022E7
:10068000204600F042F8A17A0022204600F03DF812
:1006900000220121204600F038F820460022BDE863
:1006A0001040022100F031B830B4447900238C426C
:1006B00001D8641EE1B28479944201D8641EE2B28A
:1006C00032B1012A06D0022A06D0032A06D007E05A
:1006D0000B4605E0403102E0143100E05431CBB26A
:1006E00030BC43F08001002200F00FB8012200F07E
:1006F0000CB870B50C46054603E02846641CFFF7AD
:10070000F5FF21780029F8D170BD7CB506460807B1
:10071000040EF07A01F0F00518B145F0080544F038
:100720000804012A01D02AB108E045F0010544F08F
:10073000010403E025F0010524F0010445F0040064
:100740008DF80400012000F0E3FB8DF8055044F023
:1007500004008DF80600012000F0DAFB4FF47A70F7
:100760008DF8074000903179042301AA306800F029
:10077000A1FD7CBD014800F0BBBA0000040A0020C6
:1007800030B590F840500124AC40C56B6C600468F3
:1007900063604368102B036803D099600068C260EF
:1007A00030BD9A600068C16030BD7047104810B518
:1007B00000214160816000F05BF80E48FFF719FFEF
:1007C000002211460B48FFF76FFF0BA10948FFF706
:1007D00090FF012200210748FFF766FF09A10548A5
:1007E000FFF787FFBDE81040642000F091BB0000D8
:1007F00000000020640100204F5645524C4F4144F8
:10080000000000004552524F5200000072B6FEE751
:1008100070B5114C01204FF4B471606160680F4AEB
:10082000414392FBF1F18DB2258003F05AF90C4A55
:100830000C4B03F0BDF900220B4B03F047FB0022E9
:100840000A4B03F0B5F903F0EFF820614FF0804058
:10085000C5620021416270BD0000002080A8120125
:100860009A9999999999C93F0000F03F00408F40AB
:10087000074900204861088008614FF08041C86244
:10088000486204490860091D0860091D0860704736
:1008900000000020342C0140F8B50024009490F8AA
:1008A00024202546012A12D0012280F824204A68FB
:1008B0001F23072A0DD20668776B521E02EB8202B5
:1008C00093409F430B6893401F43776319E00220D6
:1008D000F8BD06680D2A0AD2376BD21F02EB8202DE
:1008E00093409F430B6893401F43376309E0F76AC7
:1008F0000D3A02EB820293409F430B6893401F43E3
:10090000F7620A68072306680A2A0AD3F7680A3AD0
:1009100002EB420293409F438B6893401F43F76072
:1009200008E0376902EB420293409F438B68934093
:100930001F4337610A68102A01D0112A20D1124BB7
:1009400002689A4217D193681B0219D4936843F442
:10095000000393600968102912D10C490C4A0968F8
:10096000B1FBF2F101EB8101490000E0491E009169
:100970000029FBD104E0816A41F020018162012459
:1009800080F824502046F8BD002401404C0000208F
:1009900040420F0070477047704700002DE9F0415A
:1009A0004FF0000704003D467ED0A06A002628B91B
:1009B000E66284F82460204600F07EF82046FFF7C7
:1009C00075FDA16AC90600D420B1A06A40F01000EC
:1009D000A06269E0A16A21F4885141F00201A1629C
:1009E0006268E169237B0A4347EA43010A43A1683D
:1009F0004FF48077B94209D0012907D05FF0000198
:100A000094F814C0BCF1010F02D00AE03946F7E7B0
:100A1000F3B1A36A43F02003A362E36A43F0010346
:100A2000E3622368D3F804C02CF4694C4CEA010C4F
:100A3000C3F804C021688B68DFF870C003EA0C03B8
:100A400013438B60A168B9420BD0012909D00CE097
:100A5000DFF85CC0A3690CEB43330B4343F4006144
:100A6000DFE7218A0D05A5F580152168CB6A23F4FF
:100A700070032B43CB62216889680E4B1940914269
:100A800008D1E662A16A21F0020141F00101A162F0
:100A9000BDE8F081A06A20F0020040F01000A062E2
:100AA000E06A40F00100E0620120F1E7FDF7E1FFBC
:100AB00000E0FFFFFE0E1FFF70B586B00025064662
:100AC000009501950295039500681A4988422ED138
:100AD0001949886940F400708861886900F40070E1
:100AE0000490886940F0040088618869694600F0D4
:100AF0000400049001200090032001900F4800F0B2
:100B000019FA104C0E48C4E900058020C4E90250CF
:100B100040002061800060612020C4E90605204675
:100B200000F090F908B1FFF771FE3462666206B01A
:100B300070BD000000240140001002400008014088
:100B400008000240040A00202DE9F04789460446C7
:100B50003B4900683B4F0E1D9046884201D0B84289
:100B600007D1306810F4702F03D001252846BDE866
:100B7000F08794F8240001280CD0012084F8240088
:100B80002046FFF7F7FC05004FF0000004D084F882
:100B90002400EBE70220EAE7A16A40F601629143F4
:100BA00041F48071A1622168B94218D1326812F40F
:100BB000702F14D0A16A41F48011A16231684905F7
:100BC00005D5A16A21F4005141F48051A162A16AC6
:100BD000C9040AD5E16A21F00601E16206E0A26AD1
:100BE00022F48012A2624968E9E7E06284F82400F6
:100BF000216A15488862216A1448C862216A14482B
:100C0000086321686FF0020008602068816841F481
:100C100080718160216843464A464C31206A00F069
:100C20003FF920688168C1F342410729816803D0F8
:100C300041F48011816099E741F4A001FAE70000D6
:100C40000024014000280140030500086B0500084E
:100C50005105000810B5044690F82400012807D07B
:100C6000012084F824002046FFF720FC10B113E097
:100C7000022010BD21688A6822F480728A60216A8D
:100C800091F82120022A07D1084600F00EF8A16A47
:100C900030B141F04001A162002184F8241010BD60
:100CA00021F4885141F00101F5E710B590F82110C9
:100CB0000022022905D00421816380F82020012030
:100CC00010BD01680B6823F00E030B6001680B6810
:100CD00023F001030B6090F84030C46B012101FA4E
:100CE00003F3636080F8211080F82020104610BDC7
:100CF0002DE9F05FC16B0C6801680B68D0F840C04B
:100D0000042202FA0CF2494DDFF824A1494E4A4F61
:100D1000DFF828B1DFF828E122422CD05A072AD583
:100D20000A68920603D40A6822F004020A60016885
:100D3000A94201D1042219E0514501D1402215E018
:100D4000B14202D14FF4806210E0B94202D14FF4B7
:100D500080420BE0594502D14FF4802206E07145F4
:100D600002D14FF4800201E04FF080622F49083930
:100D70004A60C16A3BE04FF0020808FA0CF818EA32
:100D8000040F4FF000094FF0010235D05FEA83787D
:100D900032D50B689B0605D40B6823F00A030B6061
:100DA00080F821200168A94201D1022219E05145B1
:100DB00001D1202215E0B14202D14FF4007210E0BF
:100DC000B94202D14FF400520BE0594502D14FF421
:100DD000003206E0714502D14FF4001201E04FF0FD
:100DE0000072124908394A6080F82090816A00290F
:100DF0001AD0BDE8F05F0847082505FA0CF5254232
:100E000012D01B0710D50B6823F00E030B6090F86F
:100E10004010C36B02FA01F15960826380F821200F
:100E200080F82090016BE2E7BDE8F09F08000240E7
:100E30001C000240300002404400024058000240C2
:100E40006C00024030B528B308C813491422194475
:100E5000B1FBF2F18900C16310498163022141773E
:100E60001A6843F6F0718A43D0E900142143D0E9AF
:100E700002452C4321430469214344692143846989
:100E80002143114319600021416301224277017718
:100E9000084630BD012030BDF8FFFDBF0000024014
:100EA00070B5044690F82000002501280CD00120E0
:100EB00084F8200094F821600020012E06D084F8E8
:100EC00020000225284670BD022070BD022684F84D
:100ED0002160A0632068066826F0010606602046AF
:100EE000FFF74EFCE06A00282068016802D041F05C
:100EF0000E0106E021F0040101602068016841F064
:100F00000A0101602068016841F001010160D9E730
:100F100070B5044600F004F90546601C02D0044890
:100F20000078044400F0FCF8401BA042FAD370BDE6
:100F3000400000202DE9F84FDFF8B891002409F1B6
:100F4000040A0AF1040B23460F270BF1040EC9E033
:100F50000125A5402A40AA427DD1674ED1F804C0A0
:100F6000ACEB0608B44532D014DCBCF1030F3AD028
:100F700009DCBCF1000F2AD0BCF1010F1CD0BCF180
:100F8000020F31D11DE0BCF1110F17D0BCF1120FCF
:100F90002AD119E0B8F5881F19D006DCB8F5803FD2
:100FA00015D0B8F5801F1FD111E0B8F5001F0ED085
:100FB000B8F5041F18D10AE0CB6815E0CB681B1DFB
:100FC00012E0CB6808330FE0CB680C330CE08B6881
:100FD0002BB1012B4FF0080303D0456104E004233B
:100FE00002E0056100E00023FF2A01D8064601E087
:100FF00000F104064FEA840501D9A5F12005D6F8D1
:10100000008007FA05FC28EA0C0803FA05F548EA0F
:101010000508C6F800804D68ED0062D5374DAE6911
:1010200046F00106AE61AD6924F0030605F0010546
:101030000095334D06EB050CDCF80850A607360F7B
:1010400007FA06F825EA0805DFF8B880404503D11D
:101050004FF0000817E044E0DFF8AC80404502D1D3
:101060004FF001080FE0DFF8A480404502D14FF0B7
:10107000020808E0DFF89880404502D14FF00308ED
:1010800001E04FF0040808FA06F848EA0508CCF831
:1010900008804D68D9F80060ED034D4601D5164330
:1010A00000E096432E604D68DAF80060AD035546C7
:1010B00001D5164300E096432E604D68DBF80060D2
:1010C000ED025D4601D5164300E096432E604D6863
:1010D000DEF80060AD02754601D5164300E0964388
:1010E0002E60641C0D682A46E5407FF431AFBDE8F0
:1010F000F88F0000000401400000111000100240B1
:101100000000014000080140000C014000100140B7
:10111000001401408068084000D0012070470000A2
:1011200001488068704700004000002070B504004E
:1011300025D094F83D00002520B984F83C50204685
:1011400000F04EF9242084F83D002068016821F069
:10115000010101602068016841F4004101602068DC
:10116000016821F40041016000F00CFB4D4A616808
:10117000914201D84C4900E04C49884201D20120FB
:1011800070BD4B492368B0FBF1F15E6826F03F0665
:101190000E435E606368934206D94FF496735943D9
:1011A0004FF47A73B1FBF3F12368491C1E6A26F0F1
:1011B0003F06314319626168914210D84900401ED0
:1011C000B0FBF1F2521CC2F30B02042A01D204203C
:1011D00022E0B0FBF1F0401CC0F30B001CE0A26861
:1011E000F2B301EBC10303EB0116431EB3FBF6F3AD
:1011F0005B1C43F480431B0549D092B301EBC10251
:1012000002EB0111401EB0FBF1F0401CC0F30B00DB
:1012100040F4804040F400402168CA694CF6FF73F6
:101220009A431043C861D4E907100143206802685B
:1012300022F0C00211430160D4E903010143206898
:10124000826848F2FF339A4311438160D4E9050173
:1012500008432168CA6822F0FF021043C86001E019
:101260000EE016E02068016841F00101016025648C
:10127000202084F83D00256384F83E50002070BD96
:1012800001EB4106431EB3FBF6F35B1CB3E7012001
:10129000C2E701EB4101401EB0FBF1F0401CC0F37E
:1012A0000B00B7E7A086010080841E0000093D0006
:1012B00040420F002DE9F84F1F4690468A460446EB
:1012C000DDF82890FFF72CFF054694F83D00202814
:1012D0007FD11923012240492046009501F080F872
:1012E000002876D194F83C00012872D0012084F8BF
:1012F0003C0020680168C90703D1016841F0010181
:1013000001602068016821F400610160212084F8F7
:101310003D00102084F83E0000262664C4F8248096
:101320006785608D20852D48E0622B464A465146F0
:10133000204600F0E1FF90B9206841698069009083
:1013400036E02A464946204601F0C9F850B1206CE3
:10135000042804D12068016841F400710160012073
:10136000BDE8F88F606A216800780861606A401CF7
:101370006062618D491E6185218D491E89B221857A
:1013800022685369DB435B070BD451B100781061CD
:10139000606A401C6062608D401E6085208D401E2A
:1013A00020852A464946204600F0F4FF0028CED189
:1013B000208D0028C5D154F83D0B016841F400711F
:1013C0000160202004F81E09E67766770020C7E751
:1013D000FFE70220C4E70000020010000000FFFF4A
:1013E00010B586B00021009101910291039100682F
:1013F0000F4988421AD10F4CA06940F00800A06143
:10140000A069694600F008000490C02000901220F6
:101410000190032003900848FFF78CFDE06940F439
:101420000010E061E06900F40010049006B010BD07
:101430000054004000100240000C01400248816846
:10144000027811448160704740000020074810B5C1
:10145000016841F010010160032000F075F80F20D1
:1014600000F006F800F024F8002010BD0020024033
:1014700070B50D4D04464FF47A712878B1FBF0F049
:101480000A490968B1FBF0F000F052FB48B9102C92
:1014900007D200222146501E00F036F800206C6072
:1014A00070BD012070BD0000400000204C000020F5
:1014B0000C4808B5816941F001018161816901F041
:1014C00001010091C16941F08051C161C06900F022
:1014D000805000900448416821F0E06141F00071C3
:1014E000416008BD0010024000000140002809DBF7
:1014F00000F01F02012191404009800000F1E0202E
:10150000C0F8001170470000F0B40E4B1B680C4689
:10151000C3F30223C3F10705042D00D90425191DC7
:10152000072901D2002300E0DB1E012606FA05F19F
:10153000491E214099409E40761E16403143F0BC22
:1015400001F03CBB0CED00E0064900F00702086822
:101550004FF6FF03184040EA0220034A1043086098
:10156000704700000CED00E00000FA052DE9F8439B
:1015700005460078354CC00754D0E0690026C0000D
:1015800008D4E06940F08050E061E069012600F095
:10159000805000902E480168C90512D40168804629
:1015A00041F480710160FFF7BBFD074605E000BF15
:1015B000FFF7B6FDC01B642823D8D8F80000C0058B
:1015C000F6D5206A10F4407021D0A98801F440714A
:1015D00081421CD0206A1F49012220F440700A6019
:1015E00000220A602062C00711D0FFF799FD07466C
:1015F00041F2883808E000BFFFF792FDC11B41456A
:1016000002D90320BDE8F883206A8007F4D5206A58
:10161000696820F44070084320621EB1E06920F040
:101620008050E0612878800705D56068A96820F4BB
:101630004040084360602878C00605D56068E968C6
:1016400020F48000084360600020DBE700100240C7
:1016500000700040400442422DE9F0470F4605006B
:1016600061D0434E306800F00700B84209D23068BC
:1016700020F0070038433060306800F00700B842BF
:1016800051D128683B4C810712D5400703D56068CB
:1016900040F4E06060602878000703D5606840F49B
:1016A000605060606068A96820F0F00008436060E6
:1016B0002878C00728D06868012810D0216802283F
:1016C00010D0890700292EDA616821F00301014357
:1016D0006160FFF725FD804641F288390DE0216801
:1016E0008903EFE78901EDE7FFF71AFDA0EB080199
:1016F000494502D90320BDE8F0876068696800F0B9
:101700000C00B0EB810FEFD1306800F00700B84259
:101710000BD9306820F0070038433060306800F0A3
:101720000700B84201D00120E5E72878400705D539
:101730006068E96820F4E06008436060287800078A
:1017400006D56068296920F4605040EAC1006060F5
:1017500000F028F86168084AC1F30311515CC840E1
:101760000649086006480068FFF782FE0020C2E7CD
:101770000020024000100240F24600084C00002009
:10178000440000200448054900684968044AC1F340
:101790000221515CC84070474C00002000100240FC
:1017A0000247000812A185B00FC98DE80F0014A0F0
:1017B000144A006804905168134801F00C03042B8C
:1017C00010D0082B0ED1C1F38343C9031DF80300C9
:1017D0000AD5516804AAC1F34041515C0A4A5043FA
:1017E000B0FBF1F005B0704708494843FAE7000044
:1017F00002030405060708090A0B0C0D0E0F101052
:10180000010200000010024000127A0000093D00B1
:101810002DE9F84F040070D02078C04DC00749D0A2
:101820006868C0F38100012807D06868C0F38100B0
:10183000022809D16868C00306D52868800339D515
:1018400060680028E7D035E06068B0F5803F0BD0D5
:1018500010B1B0F5A02F11D0286820F48030286096
:10186000286820F4802002E0286840F48030286056
:10187000606890B1FFF754FC06460AE0286840F41F
:1018800080202860F0E700BFFFF74AFC801B642837
:1018900073D828688003F7D50CE0FFF741FC0646B3
:1018A00005E000BFFFF73CFC801B6428F0D82868E7
:1018B0008003F7D420789A4E80074FF001094FF04B
:1018C000000839D5686810F00C0F07D06868C0F3BD
:1018D0008100022809D16868C00306D428688007FF
:1018E00014D52069012808D110E02069B0B1C6F8EC
:1018F0000090FFF715FC074605E00AE1FFF710FC32
:10190000C01B0228C4D828688007F7D528686169F9
:1019100020F0F80040EAC10028600DE0C6F8008021
:10192000FFF7FEFB074604E0FFF7FAFBC01B0228A7
:1019300023D828688007F7D4207800072CD5794869
:10194000A169D9B1C0F80090FFF7EAFB074604E0AF
:10195000FFF7E6FBC01B02280FD8686A8007F7D59F
:1019600071484FF4FA510068B0FBF1F0009000BFED
:101970000098411E0091FAD20EE080E0C0F800808D
:10198000FFF7CEFB074604E0FFF7CAFBC01B0228A7
:1019900075D8686A8007F7D42078400760D5E86971
:1019A0000027C00008D4E86940F08050E861E86989
:1019B000012700F0805000905C480168C90513D4ED
:1019C0000168834641F480710160FFF7A9FB8246FC
:1019D00006E000BFFFF7A4FBA0EB0A0064284ED886
:1019E000DBF80000C005F5D5E06801280AD008B191
:1019F000052813D0286A20F001002862286A20F008
:101A0000040002E0286A40F001002862E06841F228
:101A1000883B98B1FFF784FB82460BE0286A40F0D0
:101A200004002862EEE700BFFFF77AFBA0EB0A0193
:101A300059455AD8286A8007F6D50CE0FFF770FBA5
:101A4000824605E0FFF76CFBA0EB0A0159454CD834
:101A5000286A8007F6D41FB1E86920F08050E86159
:101A6000E06988B36968C1F38101022944D0022882
:101A7000C6F8608004D0FFF753FB044638E034E03A
:101A8000FFF74EFB074604E0FFF74AFBC01B0228A6
:101A90002BD828688001F7D4206AB0F5803F05D1A3
:101AA0006868A16820F4003008436860D4E9080140
:101AB0000843696821F4741108436860C6F86090AF
:101AC000FFF72EFB044606E025E000BFFFF728FBEA
:101AD000001B022809D828688001F7D51BE000BF49
:101AE000FFF71EFB001B022802D90320BDE8F88F78
:101AF00028688001F4D40EE00128F7D06868226AD3
:101B000000F48031914204D1616A00F4701088427F
:101B100001D00120EAE70020E8E7000000100240C1
:101B200000004242800442424C000020007000400D
:101B300010B5401EB0F1807F01D3012010BD4FF0E1
:101B4000E02460610F21601701F038F80020A061E7
:101B500007202061002010BD7047704710B590F835
:101B60003C20012A22D0012280F83C20CA688C68DF
:101B700022F4407222434C6822F4806222430C68B3
:101B800022F4006222430C6922F4805222434C6901
:101B900022F400522243C969002322F480420A43FE
:101BA00001684A6480F83C30002010BD022010BD5E
:101BB00070B590F83C20012A26D0012480F83C40E2
:101BC000022280F83D2003685A689D6822F0700662
:101BD0000A6832435A600D4B02689A4208D0B2F14B
:101BE000804F05D00A4B9A4202D00A4B9A4204D148
:101BF000496825F080031943916080F83D40002139
:101C000080F83C10084670BD022070BD002C0140D9
:101C1000000400400008004010B50446022249B10B
:101C200004290ED0082913D094F84500012816D0B5
:101C3000012010BD94F842000128F9D184F8422017
:101C40000FE094F843000128F2D184F8432008E023
:101C500094F844000128EBD184F8442001E084F892
:101C600045200422206800F0B0FE2068416C41F459
:101C7000004141640B492068884208D0B0F1804F90
:101C800005D00949884202D00849884204D18168B8
:101C900001F00701062903D0016841F0010101604C
:101CA000002010BD002C014000040040000800404E
:101CB00010B5040003D094F83D0010B107E00120F6
:101CC00010BD002084F83C00204600F01FF80220E0
:101CD00084F83D00211D206800F034FE012084F8C6
:101CE000460084F83E0084F83F0084F8400084F801
:101CF000410084F8420084F8430084F8440084F8EA
:101D0000450084F83D00002010BD000008B5114AD0
:101D100001681148914208D1816941F400618161F3
:101D2000806900F40060009008BDB1F1804FFBD1E4
:101D3000C16941F00101C161C069002200F00100E8
:101D4000009011461C20FFF7DFFBBDE808401C2077
:101D5000FFF7CCBB002C01400010024090F83D1072
:101D6000012901D001207047022180F83D1001684F
:101D7000CA6842F00102CA6000680B49884208D074
:101D8000B0F1804F05D00949884202D00849884205
:101D900004D1816801F00701062903D0016841F0F0
:101DA0000101016000207047002C01400004004048
:101DB0000008004070B5044690F83C00012817D098
:101DC000012584F83C50022084F83D002068826898
:101DD00022F0770222F47F4282600868502830D0D7
:101DE0000DDC20284DD005DC98B310283BD148E00D
:101DF000022070BD302844D0402834D139E060281A
:101E000028D0702806D0B0F5805F2CD0B0F5005FE8
:101E100029D10AE0CB68D1E90121206800F0E2FD78
:101E20002068816841F0770109E0CB68D1E90121A0
:101E3000206800F0D7FD2068816841F4804181600E
:101E400011E0CA684968206800F080FE50212068CF
:101E500007E016E0CA684968206800F088FE602143
:101E6000206800F0C9FD84F83D50002084F83C0053
:101E700070BDCA684968206800F068FE402120688B
:101E8000EFE7226801461046EBE7704770B504465D
:101E9000006801694FF00005C943890715D4C1687E
:101EA000C943890711D4E91E016101202077206808
:101EB00080698007204602D0FFF7E7FF04E000F0CA
:101EC000D3F8204600F062F9257720680169C943FC
:101ED000490717D4C168C943490713D46FF00401F7
:101EE0000161022020772068806910F4407F20463D
:101EF00002D0FFF7CAFF04E000F0B6F8204600F079
:101F000045F9257720680169C943090716D4C168D6
:101F1000C943090712D46FF008010161042020773A
:101F20002068C0698007204602D0FFF7AEFF04E0BA
:101F300000F09AF8204600F029F925772068016919
:101F4000C943C90617D4C168C943C90613D46FF081
:101F500010010161082020772068C06910F4407FDB
:101F6000204602D0FFF791FF04E000F07DF8204604
:101F700000F00CF9257720680169C943C90708D129
:101F8000C168C943C90704D1891E0161204600F018
:101F90004DF920680169C943090609D4C168C943DC
:101FA000090605D46FF0800101612046FFF7D4FDDA
:101FB00020680169C943490609D4C168C943490673
:101FC00005D46FF040010161204600F07BF92068E4
:101FD0000169C94389060BD4C168C943890607D47E
:101FE0006FF0200101612046BDE87040FFF7B5BDEC
:101FF00070BD000010B586B00021009101910291E2
:10200000039100681449884223D11448816941F042
:1020100008018161816901F008010491816941F041
:10202000040181618069022400F0040004904FF4EF
:102030006040CDE90004694609480394FEF77AFF41
:102040004FF4E060CDE90004694606480394FEF7CA
:1020500071FF06B010BD0000002C014000100240CE
:10206000000C014000080140704770B5044690F82C
:102070003C000D4601280AD0012084F83C0042B102
:10208000042A18D0082A2AD00C2A4DD139E002207F
:1020900070BD206800F0B8FC2068816941F008013B
:1020A00081612068816921F0040181612068816972
:1020B0002A69114311E0206800F0CEFC2068816994
:1020C00041F4006181612068816921F4806181614E
:1020D000206881692A6941EA0221816124E020683F
:1020E00000F0E6FC2068C16941F00801C161206888
:1020F000C16921F00401C1612068C1692A691143E5
:1021000011E0206800F000FD2068C16941F4006121
:10211000C1612068C16921F48061C1612068C16921
:102120002A6941EA0221C161002084F83C0070BDA7
:1021300010B5040003D094F83D0010B107E0012071
:1021400010BD002084F83C00204600F01EF802205C
:1021500084F83D00211D206800F0F4FB012084F884
:10216000460084F83E0084F83F0084F8400084F87C
:10217000410084F8420084F8430084F8440084F865
:10218000450084F83D00002010BD704770470000F6
:1021900010B50446022249B104290ED0082913D0F3
:1021A00094F84100012816D0012010BD94F83E009B
:1021B0000128F9D184F83E200FE094F83F0001286F
:1021C000F2D184F83F2008E094F840000128EBD1D8
:1021D00084F8402001E084F841200122206800F0CA
:1021E000E7FB0F492068884203D1426C42F4004269
:1021F00042642068884208D0B0F1804F05D0094978
:10220000884202D00849884204D1816801F0070160
:10221000062903D0016841F001010160002010BDD2
:10222000002C014000040040000800402DE9F0416E
:10223000204D1F484FF00508AC696E69696830F899
:1022400014004E43704390FBF8F02F69384401F0BE
:1022500048FC01F0BBF801F017FC1749086017486B
:1022600030F81400704390FBF8F0384401F039FC6A
:1022700001F0ACF801F008FC0F49091D0860104896
:1022800030F81400704390FBF8F0384401F029FC5A
:1022900001F09CF801F0F8FB074908310860641C64
:1022A000AC61B4F5B47F01DB0020A861BDE8F0812A
:1022B0009201002000000020342C01406204002024
:1022C000320700207047FEE701684A69D243520591
:1022D0000FD46FF480624A61002140F8301F202241
:1022E00042738173026942F00402026101730120AA
:1022F0007047002070470000F8B50446C06A1E46CB
:102300000D461746082807D0012805D010F5803F54
:1023100002D0206B122804D12068016841F480713A
:102320000160134600224FF001112046009600F094
:1023300057F840B120680068C00502D54FF400701E
:1023400020640320F8BD2069B0F5804F0ED0062030
:10235000216800EAD51040F0F000086133463A46A3
:102360000B49204600F070F878B902E005F0FE0055
:1023700000E0E8B221680861054933463A46891F02
:10238000204600F061F80028DCD00120F8BD0000F4
:102390000800010070B516460D4604460DE02046C3
:1023A000FFF792FF08B1012070BD681C05D0FEF751
:1023B000B7FE801BA84207D835B120684069C043EA
:1023C0004007ECD4002070BD002044F8300F2021DD
:1023D0006173A073216941F0200121612073E2E75C
:1023E0002DE9F0471E4690460D460446C1F30747C7
:1023F000DDF8209008E0701C06D0FEF791FEA0EBFF
:102400000900B0420FD876B12068012F18D080693A
:1024100025EA00000004000C14D000214145EAD058
:102420000020BDE8F087002044F8300F20216173C0
:10243000A073216941F02001216120730120F0E7A0
:102440004069E5E70121E9E72DE9F0479A46914621
:102450000E46044600254FF02008C1F3074725E04B
:1024600020684069C043400514D42068016841F4E5
:102470000071016021686FF480604861256384F811
:102480003D8084F83E50206C40F00400206484F8C5
:102490003C501FE0B9F1FF3F08D0FEF741FEA0EB32
:1024A0000A0149450CD8B9F1000F09D02068012F65
:1024B00013D0806926EA00000004000C0BD0CFE79F
:1024C00044F8305F84F80D80A573206940F0200047
:1024D000206125730120BDE8F0874069EAE770B507
:1024E00016460D4604460DE02046FFF7EDFE08B106
:1024F000012070BD681C05D0FEF712FE801BA842AB
:1025000007D835B120684069C0430006ECD40020EC
:1025100070BD002044F8300F20216173A073216941
:1025200041F0200121612073E2E700003EB5002464
:1025300010480094019402940D4984600160047372
:102540000475012505614FF460214460C161FEF707
:1025500025FA08B172B6FEE7CDE90045694605489F
:102560000294FEF799F9002801D072B6FEE73EBD4D
:10257000002401405000002030B585B000241748E9
:1025800001940394816941F020018161816901F026
:1025900020010491816941F004018161816901F0A8
:1025A00004010491816941F00801816180690C4D49
:1025B00000F008000490022000900290694628462E
:1025C000FEF7B8FC0420CDE9000401200290694622
:1025D0002846FEF7AFFC05B030BD000000100240F9
:1025E0000008014010B596B000240F941094119487
:1025F000129413941C2168461494FDF76DFE20215B
:1026000007A8FDF769FE31482F49C0E900142021D1
:1026100081604FF4FA61C0E9031444618461FFF7FB
:1026200047FB08B172B6FEE74FF480500F900FA938
:102630002648FFF7BFFB08B172B6FEE72348FFF755
:1026400077FD08B172B6FEE7139413A91F481494DE
:10265000FFF7AEFA08B172B6FEE76020CDE90004DC
:102660000294039404940594002269461748069442
:10267000FFF7FBFC08B172B6FEE704226946134877
:10268000FFF7F3FC08B172B6FEE7082269460F486F
:10269000FFF7EBFC08B172B6FEE707949A200894A6
:1026A000CDE909404FF40050CDE90B4007A9074898
:1026B0000E94FFF753FA08B172B6FEE70348FFF72E
:1026C00099FC16B010BD0000002C0140D400002081
:1026D00010B586B000241648009401940294039427
:1026E00004944FF080410594016003214160202152
:1026F00081600121C0E903148461FFF7D9FA08B1B0
:1027000072B6FEE74FF48050009069460848FFF724
:1027100051FB08B172B6FEE7049404A9044805947D
:10272000FFF746FA002801D072B6FEE706B010BDEA
:102730001C010020FEE7FEE77047704710B5134804
:10274000FDF757FF124C114812A10C306268FDF7DB
:102750003FFD0E4812A11D30A268FDF739FD002291
:1027600011460A48FDF7A0FF084908480C31FDF75B
:10277000C0FF012200210548FDF796FF0349BDE88F
:1027800010401D310148FDF7B4BF00006401002076
:102790000000002046726528487A293A2564000026
:1027A000526546726528487A293A2564000000007F
:1027B000014B83E807007047200000202DE9F05FFF
:1027C000DFF8B4A0DFF8B4B02D4EDFF8B8802E4F9C
:1027D0000024204601F085F952465B4601F0E8F9F5
:1027E00000222A4B00F0C8FF8946054600F038FE5B
:1027F0000022334600F004FF0022434601F0D8F9DE
:1028000000F0E4FD01F040F921493A46214B21F85E
:1028100014002846494600F0F3FE00F021FE002295
:10282000334600F0EDFE0022434601F0C1F900F00E
:10283000CDFD01F029F918493A46184B21F814004A
:102840002846494600F0DCFE00F00AFE002233462E
:1028500000F0D6FE0022434601F0AAF900F0B6FDD2
:1028600001F012F90E4921F81400641CB4F5B47F8C
:10287000AFDBBDE8F09F000050455254FB211940EA
:102880000000F03F00408F40E0D8363800807640AE
:102890009201002052C100406204002052C1104049
:1028A000320700200348406808B1FDF7B1BFFDF7CB
:1028B000DFBF000000000020FEF7C0BD30B593B0C0
:1028C00028216846FDF708FD14210AA8FDF704FD3C
:1028D000002501200F9510951195010412958DE8A2
:1028E000230004904FF4E010CDE90810022407946F
:1028F0006846FEF78DFF08B172B6FEE70AA90F2001
:1029000081E831004FF48060CDE90D0502210AA86D
:10291000FEF7A2FE08B172B6FEE74FF40040119038
:102920000F940FA8FEF722FE002801D072B6FEE732
:1029300013B030BD704700000148FFF7A7BA000090
:102940001C010020F0B50268164B174C174D4FF0D4
:102950008047984205D0B84203D0A04201D0A84297
:1029600003D122F070064A683243984205D0B8423B
:1029700003D0A04201D0A84203D122F44074CA6817
:1029800022434C6922F08002224302608A68C262BC
:102990000A688262984201D109690163012141619B
:1029A000F0BD0000002C0140000400400008004081
:1029B00010B501F01F030121046A99408C430462A1
:1029C000016A9A401143016210BD10B501F01F0366
:1029D0000421046A99408C430462016A9A401143BD
:1029E000016210BD10B5846842EA032224F47F44DA
:1029F0000A432243826010BD826822F070020A43BB
:102A000042F007018160704730B5026A22F001028E
:102A10000262026A4368846924F073050C682C43DF
:102A200022F002058A682A430A4DA8420BD122F0FF
:102A30000805CA6823F440732A434D6922F0040252
:102A40001D438B692B434360846149684163026283
:102A500030BD0000002C014030B5026A22F01002A7
:102A60000262026A436884690D6824F4E64444EA19
:102A700005248D6822F0200242EA05120B4DA8427F
:102A80000ED1CD6822F0800242EA05124D6923F48E
:102A9000406343EA85038D6922F0400243EA8503DF
:102AA0004360846149688163026230BD002C01404B
:102AB00030B5026A22F480720262036A4268C46915
:102AC00023F4007324F073050C682C438D6843EAEB
:102AD00005230C4DA8420ED1CD6823F4006343EAD0
:102AE00005234D6922F4405242EA05128D6923F410
:102AF000806342EA05124260C4614968C1630362AF
:102B000030BD0000002C014030B5026A22F4805232
:102B10000262046A4268C3690D6823F4E64343EA2B
:102B200005238D6824F4005444EA0534064DA84278
:102B300004D14D6922F4804242EA85124260C361A9
:102B400049680164046230BD002C014010B5036A7D
:102B5000046A24F001040462846924F0F00444EA65
:102B6000021423F00A020A438461026210BD10B508
:102B7000036A23F0100303628369046A23F4704339
:102B800043EA023224F0A00343EA011182610162A8
:102B900010BDFEE7490050EAC12018BF04204A0DCD
:102BA00018BF40F0010040F2FF72B2EB515F08BF66
:102BB00040F00200012808BF052070470907090EF0
:102BC000002804DB00F1E02080F80014704700F0DA
:102BD0000F0000F1E02080F8141D70472DE9F74F39
:102BE000144694B00021C4E902111599079121F00F
:102BF0000045C9498D4206DC1599C4E9000117B0AA
:102C00000020BDE8F08FC549DFF814A3A9423CDDE0
:102C10000799C44E0029C44FC44A1599534619DD7B
:102C200001F060F9554506D0C14AC24B01F05AF98E
:102C3000C4E900010AE04FF0D352BE4B01F052F953
:102C400032463B4601F04EF9C4E9000117B00120BD
:102C5000BDE8F08F00F0D4FC554506D0B44AB54B22
:102C600000F0CEFCC4E900010AE04FF0D352B14BB2
:102C700000F0C6FC32463B4600F0C2FCC4E900014D
:102C800017B04FF0FF30BDE8F08FAB49A94215995E
:102C900078DB21F0004183468846A84AA84B00F023
:102CA00087FF0022A74B00F0ABFC00F0BDFE0990AF
:102CB00000F017FF06460F469C4A534600F078FF87
:102CC00043465A4601F002F980468A46984A994B93
:102CD0003046394600F06CFF2A0D01250B92424622
:102CE000534601F0F3F8032DC4E9000139D00B98E5
:102CF000C1F30A51401A05EB45111139814230DA0E
:102D00009148C346784400EB0510CDF80CA00C9018
:102D1000D0E900233046394600F04AFF02460B4610
:102D2000049106905846039901F0DCF880468A46E3
:102D300002460B465846039901F0D4F8049B069AC4
:102D400001F0D0F883460C9803913946D0E902236C
:102D5000304600F02DFF5A46039B01F0C3F86D1C6E
:102D6000BDE707980028A2BF099817B0BDE8F08F0B
:102D7000616881F000416160099817B04042BDE888
:102D8000F08FFFE784461598C1F31301C0F30A5092
:102D9000A0F2F5304FEA601800F01F06C6F12000DF
:102DA000139000200690079041F4801E05206D4688
:102DB00076B1664A08EB00017A4452F8213002EB02
:102DC0008101B3404A68139922FA01F1194305E0E1
:102DD0005F4908EB0002794451F82210A1FB0E274D
:102DE000A1FB0C131A449A4234BF0123002303EBC6
:102DF000070A05EB8003D3E901B70F448F4234BFC4
:102E00000121002193448B4411B1934502D903E081
:102E1000934501D2012100E00021C3E901B75144EB
:102E200045F82010011EA0F10100C1DC0298059FA9
:102E300000F10050800F12900298DDE903568000E7
:102E400000F04FFE834628460D9100F061FE6FF0C2
:102E50001D0201F008FCCDE90E01304600F058FEDD
:102E60006FF03D0201F0FFFB80468A46384600F0D5
:102E70004FFE6FF05D0201F0F6FB074642465346F7
:102E8000119100F0BDFBDDE90E2300F0B9FB5A46BD
:102E90000D9B00F0B5FB00250E465A4628460D9BBB
:102EA00001F020F8DDE90E2301F01CF842465346FC
:102EB00001F018F83A46119B01F008F8DFF898A0E5
:102EC000244A534600F074FE07468846234A244BA2
:102ED0003146284600F06CFE3A46434600F090FB2F
:102EE000074688464FF0A84253463146284600F030
:102EF0005FFE3A46434600F083FB159A12F0004FFE
:102F000004D0129A81F0004152421292C4E90001A9
:102F1000129817B0BDE8F08FFB21E93F7CD9024041
:102F2000FB21F93F7370032E8A19A33B0000405424
:102F30003163621A61B4D03DFB21394183C8C96D48
:102F4000305FE43F0000E03F381A0000B419000091
:102F500096190000182D4454FB21F93D3326A61183
:102F6000460B113C2DE9FF4D21F0004807460C4669
:102F7000B8F1795F08DA00F057FD002801BF0020A2
:102F8000324904B0BDE8F08D3A4623461046194652
:102F900000F00EFE054602462D480E460B46062161
:102FA000784400F05DF82A46334600F001FEDDE982
:102FB000022382468B463846214600F0F9FD04463E
:102FC0000F4652465B462846314600F0F1FD224648
:102FD0003B4600F087FF07468A464FF0FF322846FF
:102FE000314601F040FB1B4A90450ADA3A46534607
:102FF00000F078FF04B00022BDE8F04D134B00F064
:1030000065BF154A4245A8BFA8F500154FF000045A
:10301000B8BF124D22462B4600F064FF0646884694
:1030200022462B460020094900F05CFF04460D466D
:103030003A4653463046414600F054FF04B022461B
:103040002B46BDE8F04D00F041BF00000000F03F0E
:103050006C1700003333D33F0000E93F0000D23F3C
:103060002DE9F0414F1E00EBC7010446D1E90001F4
:1030700015461E4637F006020DD02A46334600F0AC
:1030800097FD7F1E04EBC703D3E9002300F0B8FAD5
:1030900037F00602F1D1022F25D0042F13D0062FCE
:1030A00018BFBDE8F0812A46334600F081FDD4E91F
:1030B0000A2300F0A5FA2A46334600F079FDD4E948
:1030C000082300F09DFA2A46334600F071FDD4E94A
:1030D000062300F095FA2A46334600F069FDD4E94C
:1030E000042300F08DFA2A46334600F061FDD4E94E
:1030F000022300F085FA2A46334600F059FDD4E950
:103100000023BDE8F04100F07BBA00002DE9FF4D3F
:10311000054621F0004084B00C46B0F1795F0BDA2F
:103120002846FFF737FD042808BF00F06FF828464F
:1031300008B02146BDE8F08D2A460B46104600F047
:1031400037FD06460F462A46234600F031FD8046ED
:1031500026488A4632463B4605217844FFF780FFE1
:1031600083461098029160B3214A224B4046514653
:1031700000F01EFDCDE900015A4640465146029B33
:1031800000F016FD82468846DDE906014FF0FF3269
:1031900001F069FA5246434600F0A4FE32463B462F
:1031A00000F006FDDDE9062300F09CFEDDE90023CA
:1031B00000F098FE08B02A462346BDE8F04D00F026
:1031C00085BE0B465A463046394600F0F1FC084AA7
:1031D000084B00F015FA4246534600F0E9FC08B0EF
:1031E0002A462346BDE8F04D00F00ABAAA160000B0
:1031F000495555555555C5BF012201F034BA002235
:1032000013461046114600F0B7BA0000024A0020EB
:10321000110701F028BA000001FDFFFF08B5FEF715
:1032200015F9FFF74BFBFFF7A7F960485E4900254A
:1032300001605F49C0E901154FF48041C0E90351C5
:1032400045618561C5610562FDF770FF08B172B621
:10325000FEE7FFF7C7F95748416941F001014161B5
:103260004069002200F00100009011460B20FEF79B
:103270004BF90B20FEF73AF9FFF758F9FFF728FA58
:1032800004204A49009014234E2201F1E400FDF786
:10329000BAF9FFF793FAFFF705FBFFF74FFA4FF084
:1032A0008040454A0146FFF783FA404800215430E8
:1032B000FEF76EFF3D4804215430FEF769FF3B489E
:1032C00008215430FEF764FF384800215430FEF7DF
:1032D000A3FC364804215430FEF79EFC33480821F5
:1032E0005430FEF799FC31489C30FEF737FD334EE1
:1032F000334C02213046FDF70DFF012834D0304910
:103300002A4801221C313038FDF71EFCE06901F02B
:1033100023F8A06300F0F4F8E06300F0F1F8E06354
:1033200000F0CAFE274A284B00F042FC00F04EF89D
:1033300000F07AFBE0601D483038FDF78BFCE06858
:10334000002800DCE560D4E90210814202D0A060D0
:10335000FFF7F4F90A20FDF7DBFD04213046FDF705
:10336000D9FE0028C5D10BE0FDF720FAC1E7401CCB
:103370006060FFF797FAFFF7E1F9C820FDF7C8FD95
:10338000D4E901018842F2DB08E0401E6060FFF7EB
:1033900089FAFFF7D3F9C820FDF7BAFDD4E9010196
:1033A0008842A6DDF1E700000054004080000020C4
:1033B000A0860100001002406F12833A000801400D
:1033C00000000020A94D9CDCEF50543F2DE9F04D4A
:1033D00007460E4600F020FD04460D463A463346A9
:1033E00000F074FDDFF86CA0DFF86CB01B4B0746F3
:1033F000884616F0004F4FF000020AD000F09CFB08
:103400000AD900225B463846414600F0CFFC1BD269
:1034100012E000F091FB08D20022534620462946D4
:1034200000F060FD04460D460EE000225B46384683
:10343000414600F0BBFC07D80022534620462946EF
:1034400000F0DEF804460D463146204665F31E01C5
:10345000BDE8F08D0000F03F0000E03F0000E0BF5D
:1034600000B5254B21F0004287B09A4203DC0022D0
:10347000134600922BE0214B9A4208D140B94FF0FD
:103480000100FCF758FFFFF7BAFE07B000BD03DBF1
:10349000FFF7B2FE07B000BD02AAFFF79FFB10F0D6
:1034A00003014FF001000DD0012914D002291AD0D8
:1034B0000DF1080C9CE80F00FFF754FD07B081F0F8
:1034C000004100BD0DF1080C00909CE80F00FFF7D3
:1034D0001DFE07B000BD0DF1080C9CE80F00FFF7C2
:1034E00041FD07B000BD0DF1080C00909CE80F00F5
:1034F000FFF70CFEE2E70000FB21E93F0000F07F50
:103500002DE9F05F234C0546D4E90810834600F00E
:10351000FFFD0146584600F05DFE6063216B80466A
:103520008946284600F0F8FF414600F029FF494649
:1035300000F0EEFD0546E062A06A00F0BDFD0E461B
:1035400007462946484600F0E7FF20F0004000F01B
:10355000B3FD3A46334600F02BFB81468A46584677
:1035600000F0AAFD07460E46404600F0A5FD0022E9
:10357000094B00F0ABFC3A46334600F019FB4A46D3
:10358000534600F03DF800F009F8256360622846D4
:10359000BDE8F09F000000200000F03F21F0004255
:1035A000A2F16052B2F5801F01F0004328BFD2F1B2
:1035B0007F6C0BD95FEA001C43EAC20242EB5070F9
:1035C00018BF704728BF20F001007047B2F5801F78
:1035D000BCBF184670474FEA410C1CF5001F02D2D1
:1035E000084600F094BF70B500F08CFB0000008925
:1035F000FFF7F6BF4FF00040A0F5800070470000D5
:1036000010B591EA030F48BF83F0004300F17284C4
:10361000841A71EB030C05D2121943EB0C03001B47
:1036200061EB0C01DFF824E14FEA1154A4EB135CC9
:103630001EEA430F18BF9EEA445F73D023EA0E03CD
:10364000DCF1200E21EA045143F4801332D322FA34
:103650000CFE10EB0E0023FA0CFE41EB0E01CCF138
:10366000200E03FA0EFE10EB0E0051F10001B1F531
:10367000801FCCF1200E32D201EB045112FA0EF26F
:10368000BDE8104058BF7047401C38BF5FEA420297
:1036900018BF7047002814BF20F0010041F100015D
:1036A0004FEA410313F5001F38BF7047A1F1C04135
:1036B00000F076BB012A43EB0302ACF1200CDCF1F5
:1036C0001F0E32BF4FF0000E23FA0CF310EB030075
:1036D00041EB0451B4EB115FD0D0A1EB045101F5E3
:1036E000801149085FEA300001EB04510ED350F11C
:1036F000000038BF12FA0EFE08D1BDE81040C9E73D
:10370000401C38BF5FEA4202CAD1C3E7BDE810409F
:103710004FEA410313F5001F38BF7047A1F1C041C4
:1037200000F03EBB9EEA445F08D011EA5E0FBDE8A0
:10373000104004BF01F0004100207047BDE8104078
:1037400070B500F0DFFA00BF64FBBE3E0000E0FF92
:1037500002494FF0000000F054BF00BF0000F87FA6
:10376000491058BFC1F140415B1058BFC3F14043FD
:103770008B42EFF3008070472DE9C04130B4DFF891
:10378000A0C23CEA111418BF3CEA131400F0EC800C
:1037900081EA03051CEA111444EAD57418BF1CEA37
:1037A000131500F0C780A4EB05044FF0004545EA6F
:1037B000C12145EAC32341EA505143EA525304F17F
:1037C0007F74994204F500344FEAC0204FEAC222C8
:1037D00008BF904200F09C804FEA13650FF240163C
:1037E000765D4FEA134506FB05F7C7F1807706FBC8
:1037F00007F74FEAD737A7FB03687642C8F580384A
:10380000A7FB06CE38BFA8F1010807FB08E64FF07A
:10381000000EA6FB028CE6FB03CEDCF1000CCEF121
:10382000004E38BFAEF1010EA6FB0C584FF000075A
:103830004FF00005E6FB0E87A1FB08C6A0FB07CEF4
:1038400016EB0E0645F10005E1FB076515F1E04EAC
:103850007EBFA4F580345FEA46066D4116F180070D
:1038600045F100054FEA17274FEA066647EA056764
:10387000A6F1DE46B6F1805F4FEA15251FD938461E
:1038800024F0010C05EBC471BCF1FE6F01EB0C11CF
:1038900002D8F0BCBDE8008124425CBF01F5801E67
:1038A0009EEAC47F02D4F0BCBDE80081244238D433
:1038B000F0BCA1F1C041BDE8004100F071BA4FEA8F
:1038C000D22242EA43524FEAD323A7FB02864FEAB1
:1038D000D02040EA415007FB03661EEA0E0F4FEA74
:1038E000D12105FB026658BFA6EB0056B6EB005689
:1038F0004FEA520E4EEAC37E18EB0E0E56EB530EF5
:10390000BDD518EB02085E417F1C55F10005B6E7F6
:103910004FF480154FF000074FF000064FF00008FD
:10392000ADE7F0BC4FF0000001F1C04101F00041F3
:10393000BDE8008111EA0C1F0CEA131500D00CE061
:1039400013EA0C1F00F025804FF00000F0BC81EA64
:10395000030101F00041BDE80081F0BCBDE8004179
:1039600081EA030100F01CBAF0BCBDE8004170B56B
:1039700000F0C8F9097EFC3E00F007B881EA0301B7
:103980004FF0000001F00041704781EA030100F0B0
:1039900007BAF0BCBDE800414FF000002149704774
:1039A000FFFDFBF9F7F5F4F2F0EEEDEBE9E8E6E404
:1039B000E3E1E0DEDDDBDAD8D7D5D4D3D1D0CFCD8B
:1039C000CCCBCAC8C7C6C5C4C2C1C0BFBEBDBCBBC4
:1039D000BAB9B8B7B6B5B4B3B2B1B0AFAEADACABBF
:1039E000AAA9A8A8A7A6A5A4A3A3A2A1A09F9F9E99
:1039F0009D9C9C9B9A99999897979695959493934B
:103A0000929191908F8F8E8E8D8C8C8B8B8A8989E1
:103A10008888878786858584848383828281818064
:103A20000000FF070000F87F4FEA41034FEA5353BD
:103A3000A3F58063D3F11E03C8BFD3F1210C0CDDC5
:103A40004FF0004242EAC12242EA505232FA03FCED
:103A50008CEAE17CACEBE1707047102BC4BF002016
:103A6000704703F5787CBCF1FF3F04D06FF0004253
:103A700082EA2100704770B500F044F94992248031
:103A800000207047F2E700004FEA1153A3F580636E
:103A9000D3F11E03A8BFD3F1200C08DB4FF0004286
:103AA00042EAC12252EA505232FA03F07047094208
:103AB0000BD4102BC4BF0020704703F5787CBCF1F9
:103AC000FF3F05D04FF0FF3070474FF000007047C8
:103AD00070B500F017F900BF4992248000207047AC
:103AE000F0E710F0004248BF4042B0FA80F310FA0D
:103AF00003F10AD0C3F11D0303F580634FEA41507F
:103B000002EB035202EBD12170474FF000007047E7
:103B1000B0FA80F310FA03F10AD0C3F11D0303F5E4
:103B200080634FEA41504FEA035202EBD1217047C4
:103B30004FF000007047000051EA030C17D41CF549
:103B4000801F58BFBCF5801F00F10680994218BF46
:103B5000704708BF9042704707D711F5801F58BFC4
:103B600013F5801F19D499427047894270471CF59C
:103B7000801F08D5BCF5801FF7D58B4218BF704752
:103B800008BF824270474FF4001C1CEB410F38BF46
:103B90001CEB430F01D28B42704770B500F0B2F8B6
:103BA000922449004FF000514FF08053FFF7D8BDE9
:103BB000DFF848C170B51CEA111E1EBF1CEA1315C0
:103BC0009EEA0C0F95EA0C0F00F06F8081EA030467
:103BD00023EA4C134EEAD47E21EA4C1141F48011C1
:103BE00043F48013AE44A1FB024CA0FB0365AEF18D
:103BF0007F7E361955EB0C05A1FB034C4CF10003FD
:103C0000A0FB021C16EB0C06654153F100030942B0
:103C100018BF46F0010613F4007F0BD14FEA0331C1
:103C20004FEA0530340341EA155140EA16506FF06F
:103C300003020AE04FEAC3214FEAC520F40241EA39
:103C4000555140EA56506FF0020202EB2E4201EB52
:103C5000025585EACE710AD05FEA440C18BF24F001
:103C6000004450F1000041F1000120EAD47040F21C
:103C7000FE7C624500D270BDA84214BF4FF0804464
:103C80004FF04044002E08BF0024BEF1806FA8BF53
:103C9000A1F1C041BDE8704080F282804FF0000089
:103CA00001F1C04101F0004170479EEA0C0F0CEA9F
:103CB000131518BF95EA0C0F06D04FF0000081EAEB
:103CC000030E0EF0004170BD00F01CF88900013EAB
:103CD00000F007B800F009B84FEA430C5FEA5C5CFB
:103CE00008D081EA030100F05BB84FEA410C5FEABB
:103CF0005C5CF6D14FF00000014970470000FF07FF
:103D00000000F87F0EF1020E2EF0030E5EF8046B39
:103D1000364205D4012A43EB030515F5001F12D8DE
:103D2000012841EB010C1CF5001F0CD80ED14FEA05
:103D3000D17C15F5001F0CEB4C0C0CF1020C08BFEC
:103D40004CEBD37C04E04FF0080C01E04FEAD37C4D
:103D50000CEB4C0526FA05F606F00706B6F1040C46
:103D600006D20EEB860CBDE870404CF0010C6047AB
:103D7000DFE80CF0090B02024FF000414FF00000A9
:103D8000A1F5002170BD19461046012851EB010430
:103D900018BFD4F5001484BF002001F0004170BDAD
:103DA0000808A0F500114FEA3101704753EA010CF1
:103DB00017D41CF5801F58BFBCF5801F00F106808A
:103DC0008B4218BF704708BF8242704707D713F570
:103DD000801F58BF11F5801F19D48B4270479B423A
:103DE00070471CF5801F08D5BCF5801FF7D5994298
:103DF00018BF704708BF904270474FF4001C1CEB7F
:103E0000430F38BF1CEB410F01D2994270470FB4EA
:103E10000CBC03BCFFF7C1BE5FEA410C5FEA5C5C0F
:103E2000ACF580635B1C39D4D3F1340240F3458098
:103E3000B2F1200314DA4FF0010C0CFA02FCACF1E1
:103E400001030340B3EB5C0220EA030008BF10EA61
:103E50000C0F98BF704710EB0C0041F10001704748
:103E60000AD0C3F1200201FA02FC012821FA03F171
:103E700001FA03F14CF100004FF0010C0CFA03FCC5
:103E8000ACF10103B0F1004F21EA030108BF11EAD0
:103E90000C0F4FF0000088BF61447047B3F1FF3F43
:103EA00028BF50EAC12C01F000414FF0000084BF50
:103EB00041F07C5141F470017047B3F5806FB8BF99
:103EC000704770B5FFF71EFF40DBB6BE91EA030FE7
:103ED00010B581F000413FF59BAB83F0004300F04B
:103EE00009B8000010B591EA030F48BF83F0004302
:103EF0003FF58EAB841A71EB030C07D212198CF0CC
:103F0000004C43EB0C03001B61EB0C01DFF8A4E158
:103F10004FEA1154A4EB135C1EEA430F18BF9EEA4C
:103F2000445F00F0B08023EA6E03524221EA04515C
:103F3000C3EB6E0338BF5B1EDCF1200E25D322FAE3
:103F40000CFE10EB0E0043FA0CFE41EB0E01CCF11F
:103F5000200E03FA0EFE10EB0E0051F10001CCF121
:103F6000200E29D412FA0EF201EB0451BDE81040E4
:103F700058BF7047401C1CBFB2F1004F704700286B
:103F80000CBF491C20F00100704712EB020E43EBFE
:103F9000030218BF4FF0010E4EEA4202ACF1200CB2
:103FA000DCF11E0E54D943FA0CFE10EB0E0051F159
:103FB000FF31CCF11E0ED5D50EF1010E12FA0EFE18
:103FC000404141EB010101EB445C5FEA5C5C10D9CC
:103FD00010EBDE7001EB045138BFBEF1004FBDE8BD
:103FE000104018BF704700280CBF491C20F001008A
:103FF000704730D24FEAD42C11F5001124F400643C
:104000001BD0B1FA81F20B3AA41AA41ED2F12003FC
:10401000914030FA03F31943904001EBCC71002C2E
:1040200001EB0451BDE81040A8BF704701F1C04149
:104030004FF0000001F000417047B0FA80F310FA31
:1040400003F100D110BDE41A173C4805C90AE4E7A2
:1040500001EB045110BD491001EB0451BDE81040C3
:104060004FEA300002E04FF0000170474A0008BFFD
:104070000042F8D0B2F5001F28BF704701F00041A0
:104080004FF0000070479EEA445F07D011EA5E0FD0
:10409000BDE8104004BF002100207047BDE810407B
:1040A00070B5FFF72FFE00BF40DFF63E83F0004102
:1040B000104670470000E0FF43004FEAD30C4FEA80
:1040C0003C0C43401FBF40070CF1605113F0FE4F02
:1040D00070471CF0006F03D100200CF000417047C6
:1040E0000CF0004343EA507010B540EACC0000F0F9
:1040F000C8F900BF000000924FEA0001FFF750BE70
:104100004FF000414FF00000A1F500217047000082
:1041100090EA010F48BF81F0004100F10482421A89
:104120003CBF801A89184FEAD0524FF07F4C1CEAEE
:10413000410FA2EBD15318BF9CEA026F00F03B8005
:104140004FF0004C4CEA00204CEA012121FA03FC1C
:1041500010EB0C0C1ED202F1FF325FEA1C2040EB88
:10416000C25038BF70471CF07F0F4FEA400C18BF99
:10417000BCF17F4F38BF7047C3F12003994008BF9F
:1041800020F00100BCF17F4F38BF7047A0F1C04064
:1041900000F0BDB94FEA3C00000A40EBC25028BF16
:1041A0001CF0FF0F4FEA400CE6D018BFBCF17F4F68
:1041B00038BF7047EAE79CEA026F05D010EA5C0F4F
:1041C00008BF00F00040704710B500F05AF900BF7A
:1041D00064FBBE3E4FF47F0C1CEAD0121EBF1CEAEB
:1041E000D11392EA0C0F93EA0C0F00F0858090EA4D
:1041F000010F48BF42F4807240F4000C41F400000B
:104200002CF07F4120F07F4000B58142A2EB0302F9
:104210000FF2081CACEB504EC0F100009EF800E01D
:104220004FEA4E0E00FB0EFC38BF49004FEA2C1C33
:1042300002F5FA020CFB0EF34FEACE1E4FEA112CE8
:104240004FEAC1210EEB635E42EB22420EFB0CFCF7
:104250004FEA1C5300FB03114FEA112C4FEA0131C6
:104260000EFB0CFC4FEADC4C00FB0C11C14228BFDA
:1042700009184CEB03335DF804EB10EB410143EB01
:10428000C250B2F57C0F38BF704729D512F0F00F3D
:104290001CBF00F1C04000F00040704700818283E5
:1042A0008485868788898B8C8D8E8F919293959645
:1042B00097999A9C9D9FA0A2A3A5A7A8AAACAEB0CF
:1042C000B2B3B5B7B9BCBEC0C2C5C7C9CCCED1D4D4
:1042D000D7D9DCDFE2E6E9ECF0F3F7FAFE00000004
:1042E0004FEA400C0CF1807CBCF17E4F28BF704738
:1042F000B0F1C04000F00BB990EA010F0CEAD11305
:1043000048BF42F48072624538BF634507D213F458
:104310007F0F16D080EA010000F00040704710B512
:1043200000F0AFF8097EFC3E00F005B880EA01001D
:1043300000F00040704780EA010000F0004000F00B
:10434000E6B812F47F0F04BF0248704780EA01000C
:1043500000F0DDB80000C07FB0FA80F310FA03F27D
:10436000C3F19D030AD0D90501EB1220530638BFD3
:10437000704700F1010008BF20F001007047000005
:104380004FF47F0C1CEAD0121EBF1CEAD11392EA34
:104390000C0F93EA0C0F00F0478090EA010F48BF22
:1043A00042F480724FF0004C4CEA00204CEA0121AC
:1043B00002EB0302A0FB0113A2F50002002918BFC3
:1043C00043F001035B0028BF4FEA330342EB224274
:1043D0005FEA132C4CEBC2502EBFBCEB436FB2F51F
:1043E0007C0F70474FEA036CBCF1004F08BF20F010
:1043F0000100B2F57C0F38BF70470BD582F0FF0289
:1044000012F5803FC8BF704700F1C040D8BF00F030
:104410000040704700F5000C5FEA4C0C48BF704745
:10442000B0F1C04000F073B890EA010F0CEAD1136C
:1044300048BF42F48072624538BF634504D280EAC7
:10444000010000F00040704710B500F01AF800BFFE
:104450008900013E00F007B800F009B85FEA410C9E
:104460005FEA1C6C08D080EA010000F050B85FEAF7
:10447000400C5FEA1C6CF6D14FF00040A0F58000C4
:1044800070470EF1020E2EF0030E5EF8044B24422C
:1044900004D44FEA4102B2F17F4F11D84FEA4003F2
:1044A000B3F17F4F0CD80ED14FEAD07CB2F17F4FE1
:1044B0000CEB4C0C0CF1020C08BF4CEBD17C04E073
:1044C0004FF0080C01E04FEAD17C0CEB4C0324FACE
:1044D00003F404F00704B4F1040C06D20EEB840CD0
:1044E000BDE810404CF0010C6047DFE80CF0070815
:1044F00002024FF00040A0F5800010BD08464200C7
:1045000018BFD2F1807288BF00F0004010BDFF21BB
:1045100041EAD050C005704790EA010F48BF81F0D2
:1045200000413FF5FCAD421A04D882F00042A0EBF6
:10453000020011444FEAD0524FF07F4C1CEA410F69
:10454000A2EBD15318BF9CEA026F4AD04FF0004C47
:104550004CEA00204CEA012121FA03FCB0EB0C0CE0
:104560000FD412F0FE0F36D05FEA4C001DD50012BA
:1045700040EBC25038BF70471CF03F0F18BF704768
:104580000BE0A2F101025FEA1C2040EBC25038BFF1
:1045900070471CF07F0F18BF7047C3F1200399408C
:1045A00014BF401E20F00100704780084FEA12231C
:1045B00008BF7047B0FA80FCA2EB0C02CCF1280CCB
:1045C00060FA0CF093EA122F04BF00EBC250704760
:1045D0004FEAC3707047130A5FEADC1008BF7047E8
:1045E000F6E79CEA026F04D010EA5C0F08BF0020D7
:1045F000704710B5FFF745FF40DFF63E81F0004001
:1046000070470CF00F03092B08BF082000F05980F9
:104610000A2B0BD0082B18BF704708BF1CF0400FA7
:104620000AD04FF000004FF0000170471CF0400F1F
:1046300018BF4FF0004070471CF0100F08D020F05A
:10464000704300F07F4242EAD3014FEA4370704763
:1046500000F0604021F07F4242EA000201F07F401A
:1046600040EA727070474FF0FF0C4CF4E06C1CEAAB
:1046700011531CBF9CEA030C9445C2BFDA4201EB04
:1046800002517047002B0DD0BCF1000F0FD0002A53
:1046900001F00041A4BF41F0E04141F07F614FF0E3
:1046A0000000704701F000414FF00000704750EAF1
:1046B00001334FF09B0C18BF4CF0806C7FF448A87E
:1046C00070471CF4801F11D01CF4E02F03D06FEA58
:1046D000CC31490070474FF04050EFF3008222F098
:1046E000704242EA000282F3008870474FF00000F7
:1046F00070470000000000000000010203040607EC
:10470000080900000000010203040000000000008E
:104710004C5555555555A53F7751C1166CC156BFDF
:104720009015CB19A001FA3EAD529C804F7E92BEEF
:10473000C4B1B4BD9EEE213ED43888BEE9FAA8BD0E
:1047400000004054FB21F93F3163621A61B4D03D4F
:104750000000601A61B4D03D7370032E8A19A33B28
:104760000000002E8A19A33BC14920259A837B397A
:1047700000000000000000006E83F9A22915444EDD
:10478000D15727FCC0DD34F5999562DB4190433C5D
:10479000AB6351FE61C5BBDE3A6E24B7E0D24D4239
:1047A000EA2E49061C92D1091CEB1DFE3EA729B139
:1047B000F53582E88444BB2E26709CE9417E5FB4C7
:1047C00039D69139F43953838B5F849C3B28F9BDEA
:1047D000FF97F81F0F9805DE8B112FEF1F6D0A5AF8
:1047E000CF7E366DB709CB27663F464F2DEA5F9ED9
:1047F000C7BA27757BF1E5EBF739073DEA92528A94
:10480000B15FFB6B085D8D1FA6F810111111813F80
:10481000D561C119A0012ABF7DFEB157E31DC73E76
:10482000EB9C2B8AE6E55ABE7CD5CF5A3AD9E53DBA
:104830005048000800000020500000002801000837
:10484000A048000850000020581000004401000853
:104850000000000000000000000000000000000058
:104860000000000000000000000000000000000048
:104870000000000000000000000000000000000038
:104880000000000000000000000000000000000028
:104890000100000010000000000000000024F400EF
:04000005080000ED02
:00000001FF
